{
    "_format": "hh-sol-artifact-1",
    "contractName": "Dai",
    "sourceName": "contracts/Dai.sol",
    "abi": [
        {
            "inputs": [],
            "payable": false,
            "stateMutability": "nonpayable",
            "type": "constructor"
        },
        {
            "anonymous": false,
            "inputs": [
                {
                    "indexed": true,
                    "internalType": "address",
                    "name": "owner",
                    "type": "address"
                },
                {
                    "indexed": true,
                    "internalType": "address",
                    "name": "spender",
                    "type": "address"
                },
                {
                    "indexed": false,
                    "internalType": "uint256",
                    "name": "value",
                    "type": "uint256"
                }
            ],
            "name": "Approval",
            "type": "event"
        },
        {
            "anonymous": false,
            "inputs": [
                {
                    "indexed": true,
                    "internalType": "address",
                    "name": "previousOwner",
                    "type": "address"
                },
                {
                    "indexed": true,
                    "internalType": "address",
                    "name": "newOwner",
                    "type": "address"
                }
            ],
            "name": "OwnershipTransferred",
            "type": "event"
        },
        {
            "anonymous": false,
            "inputs": [
                {
                    "indexed": true,
                    "internalType": "address",
                    "name": "from",
                    "type": "address"
                },
                {
                    "indexed": true,
                    "internalType": "address",
                    "name": "to",
                    "type": "address"
                },
                {
                    "indexed": false,
                    "internalType": "uint256",
                    "name": "value",
                    "type": "uint256"
                }
            ],
            "name": "Transfer",
            "type": "event"
        },
        {
            "constant": true,
            "inputs": [],
            "name": "_decimals",
            "outputs": [
                {
                    "internalType": "uint8",
                    "name": "",
                    "type": "uint8"
                }
            ],
            "payable": false,
            "stateMutability": "view",
            "type": "function"
        },
        {
            "constant": true,
            "inputs": [],
            "name": "_name",
            "outputs": [
                {
                    "internalType": "string",
                    "name": "",
                    "type": "string"
                }
            ],
            "payable": false,
            "stateMutability": "view",
            "type": "function"
        },
        {
            "constant": true,
            "inputs": [],
            "name": "_symbol",
            "outputs": [
                {
                    "internalType": "string",
                    "name": "",
                    "type": "string"
                }
            ],
            "payable": false,
            "stateMutability": "view",
            "type": "function"
        },
        {
            "constant": true,
            "inputs": [
                {
                    "internalType": "address",
                    "name": "owner",
                    "type": "address"
                },
                {
                    "internalType": "address",
                    "name": "spender",
                    "type": "address"
                }
            ],
            "name": "allowance",
            "outputs": [
                {
                    "internalType": "uint256",
                    "name": "",
                    "type": "uint256"
                }
            ],
            "payable": false,
            "stateMutability": "view",
            "type": "function"
        },
        {
            "constant": false,
            "inputs": [
                {
                    "internalType": "address",
                    "name": "spender",
                    "type": "address"
                },
                {
                    "internalType": "uint256",
                    "name": "amount",
                    "type": "uint256"
                }
            ],
            "name": "approve",
            "outputs": [
                {
                    "internalType": "bool",
                    "name": "",
                    "type": "bool"
                }
            ],
            "payable": false,
            "stateMutability": "nonpayable",
            "type": "function"
        },
        {
            "constant": true,
            "inputs": [
                {
                    "internalType": "address",
                    "name": "account",
                    "type": "address"
                }
            ],
            "name": "balanceOf",
            "outputs": [
                {
                    "internalType": "uint256",
                    "name": "",
                    "type": "uint256"
                }
            ],
            "payable": false,
            "stateMutability": "view",
            "type": "function"
        },
        {
            "constant": false,
            "inputs": [
                {
                    "internalType": "uint256",
                    "name": "amount",
                    "type": "uint256"
                }
            ],
            "name": "burn",
            "outputs": [
                {
                    "internalType": "bool",
                    "name": "",
                    "type": "bool"
                }
            ],
            "payable": false,
            "stateMutability": "nonpayable",
            "type": "function"
        },
        {
            "constant": true,
            "inputs": [],
            "name": "decimals",
            "outputs": [
                {
                    "internalType": "uint8",
                    "name": "",
                    "type": "uint8"
                }
            ],
            "payable": false,
            "stateMutability": "view",
            "type": "function"
        },
        {
            "constant": false,
            "inputs": [
                {
                    "internalType": "address",
                    "name": "spender",
                    "type": "address"
                },
                {
                    "internalType": "uint256",
                    "name": "subtractedValue",
                    "type": "uint256"
                }
            ],
            "name": "decreaseAllowance",
            "outputs": [
                {
                    "internalType": "bool",
                    "name": "",
                    "type": "bool"
                }
            ],
            "payable": false,
            "stateMutability": "nonpayable",
            "type": "function"
        },
        {
            "constant": true,
            "inputs": [],
            "name": "getOwner",
            "outputs": [
                {
                    "internalType": "address",
                    "name": "",
                    "type": "address"
                }
            ],
            "payable": false,
            "stateMutability": "view",
            "type": "function"
        },
        {
            "constant": false,
            "inputs": [
                {
                    "internalType": "address",
                    "name": "spender",
                    "type": "address"
                },
                {
                    "internalType": "uint256",
                    "name": "addedValue",
                    "type": "uint256"
                }
            ],
            "name": "increaseAllowance",
            "outputs": [
                {
                    "internalType": "bool",
                    "name": "",
                    "type": "bool"
                }
            ],
            "payable": false,
            "stateMutability": "nonpayable",
            "type": "function"
        },
        {
            "constant": false,
            "inputs": [
                {
                    "internalType": "uint256",
                    "name": "amount",
                    "type": "uint256"
                }
            ],
            "name": "mint",
            "outputs": [
                {
                    "internalType": "bool",
                    "name": "",
                    "type": "bool"
                }
            ],
            "payable": false,
            "stateMutability": "nonpayable",
            "type": "function"
        },
        {
            "constant": true,
            "inputs": [],
            "name": "name",
            "outputs": [
                {
                    "internalType": "string",
                    "name": "",
                    "type": "string"
                }
            ],
            "payable": false,
            "stateMutability": "view",
            "type": "function"
        },
        {
            "constant": true,
            "inputs": [],
            "name": "owner",
            "outputs": [
                {
                    "internalType": "address",
                    "name": "",
                    "type": "address"
                }
            ],
            "payable": false,
            "stateMutability": "view",
            "type": "function"
        },
        {
            "constant": false,
            "inputs": [],
            "name": "renounceOwnership",
            "outputs": [],
            "payable": false,
            "stateMutability": "nonpayable",
            "type": "function"
        },
        {
            "constant": true,
            "inputs": [],
            "name": "symbol",
            "outputs": [
                {
                    "internalType": "string",
                    "name": "",
                    "type": "string"
                }
            ],
            "payable": false,
            "stateMutability": "view",
            "type": "function"
        },
        {
            "constant": true,
            "inputs": [],
            "name": "totalSupply",
            "outputs": [
                {
                    "internalType": "uint256",
                    "name": "",
                    "type": "uint256"
                }
            ],
            "payable": false,
            "stateMutability": "view",
            "type": "function"
        },
        {
            "constant": false,
            "inputs": [
                {
                    "internalType": "address",
                    "name": "recipient",
                    "type": "address"
                },
                {
                    "internalType": "uint256",
                    "name": "amount",
                    "type": "uint256"
                }
            ],
            "name": "transfer",
            "outputs": [
                {
                    "internalType": "bool",
                    "name": "",
                    "type": "bool"
                }
            ],
            "payable": false,
            "stateMutability": "nonpayable",
            "type": "function"
        },
        {
            "constant": false,
            "inputs": [
                {
                    "internalType": "address",
                    "name": "sender",
                    "type": "address"
                },
                {
                    "internalType": "address",
                    "name": "recipient",
                    "type": "address"
                },
                {
                    "internalType": "uint256",
                    "name": "amount",
                    "type": "uint256"
                }
            ],
            "name": "transferFrom",
            "outputs": [
                {
                    "internalType": "bool",
                    "name": "",
                    "type": "bool"
                }
            ],
            "payable": false,
            "stateMutability": "nonpayable",
            "type": "function"
        },
        {
            "constant": false,
            "inputs": [
                {
                    "internalType": "address",
                    "name": "newOwner",
                    "type": "address"
                }
            ],
            "name": "transferOwnership",
            "outputs": [],
            "payable": false,
            "stateMutability": "nonpayable",
            "type": "function"
        }
    ],
    "bytecode": "0x60806040523480156200001157600080fd5b50604051620015a2380380620015a2833981016040819052620000349162000305565b6040518060400160405280600581526020016434506c617960d81b8152506040518060400160405280600581526020016434504c415960d81b8152508160039080519060200190620000889291906200025f565b5080516200009e9060049060208401906200025f565b505050620000bb620000b56200012160201b60201c565b62000125565b6005805460ff60a01b1916600160a01b83151502179055620000da3390565b600680546001600160a01b0319166001600160a01b03929092169190911790556b02de898098d097731ae00000600781905562000118838262000177565b505050620003b7565b3390565b600580546001600160a01b038381166001600160a01b0319831681179093556040519116919082907f8be0079c531659141344cd1fd0a4f28419497f9722a3daafe3b4186f6b6457e090600090a35050565b6001600160a01b038216620001d25760405162461bcd60e51b815260206004820152601f60248201527f45524332303a206d696e7420746f20746865207a65726f206164647265737300604482015260640160405180910390fd5b8060026000828254620001e6919062000353565b90915550506001600160a01b038216600090815260208190526040812080548392906200021590849062000353565b90915550506040518181526001600160a01b038316906000907fddf252ad1be2c89b69c2b068fc378daa952ba7f163c4a11628f55a4df523b3ef9060200160405180910390a35050565b8280546200026d906200037a565b90600052602060002090601f016020900481019282620002915760008555620002dc565b82601f10620002ac57805160ff1916838001178555620002dc565b82800160010185558215620002dc579182015b82811115620002dc578251825591602001919060010190620002bf565b50620002ea929150620002ee565b5090565b5b80821115620002ea5760008155600101620002ef565b600080604083850312156200031957600080fd5b82516001600160a01b03811681146200033157600080fd5b602084015190925080151581146200034857600080fd5b809150509250929050565b600082198211156200037557634e487b7160e01b600052601160045260246000fd5b500190565b600181811c908216806200038f57607f821691505b60208210811415620003b157634e487b7160e01b600052602260045260246000fd5b50919050565b6111db80620003c76000396000f3fe608060405234801561001057600080fd5b50600436106101425760003560e01c80634bf365df116100b85780639dc29fac1161007c5780639dc29fac1461029c578063a457c2d7146102af578063a9059cbb146102c2578063dd62ed3e146102d5578063f2fde38b1461030e578063fca3b5aa1461032157600080fd5b80634bf365df1461023e57806370a0823114610252578063715018a61461027b5780638da5cb5b1461028357806395d89b411461029457600080fd5b806323b872dd1161010a57806323b872dd146101ce578063313ce567146101e157806339509351146101f057806340c10f191461020357806342966c68146102185780634779b82e1461022b57600080fd5b80630480e58b1461014757806306fdde03146101635780630754617214610178578063095ea7b3146101a357806318160ddd146101c6575b600080fd5b61015060075481565b6040519081526020015b60405180910390f35b61016b610334565b60405161015a9190610f68565b60065461018b906001600160a01b031681565b6040516001600160a01b03909116815260200161015a565b6101b66101b1366004610fd9565b6103c6565b604051901515815260200161015a565b600254610150565b6101b66101dc366004611003565b6103dc565b6040516012815260200161015a565b6101b66101fe366004610fd9565b61048b565b610216610211366004610fd9565b6104c7565b005b61021661022636600461103f565b61060b565b610216610239366004611058565b610681565b6005546101b690600160a01b900460ff1681565b61015061026036600461107a565b6001600160a01b031660009081526020819052604090205490565b610216610740565b6005546001600160a01b031661018b565b61016b610776565b6102166102aa366004610fd9565b610785565b6101b66102bd366004610fd9565b6107c2565b6101b66102d0366004610fd9565b61085b565b6101506102e3366004611095565b6001600160a01b03918216600090815260016020908152604080832093909416825291909152205490565b61021661031c36600461107a565b610868565b61021661032f36600461107a565b610900565b606060038054610343906110c8565b80601f016020809104026020016040519081016040528092919081815260200182805461036f906110c8565b80156103bc5780601f10610391576101008083540402835291602001916103bc565b820191906000526020600020905b81548152906001019060200180831161039f57829003601f168201915b5050505050905090565b60006103d33384846109be565b50600192915050565b60006103e9848484610ae3565b6001600160a01b0384166000908152600160209081526040808320338452909152902054828110156104735760405162461bcd60e51b815260206004820152602860248201527f45524332303a207472616e7366657220616d6f756e74206578636565647320616044820152676c6c6f77616e636560c01b60648201526084015b60405180910390fd5b61048085338584036109be565b506001949350505050565b3360008181526001602090815260408083206001600160a01b038716845290915281205490916103d39185906104c2908690611119565b6109be565b6006546001600160a01b031633146105215760405162461bcd60e51b815260206004820152601f60248201527f506c6179546f6b656e3a206f6e6c79206d696e7465722063616e206d696e7400604482015260640161046a565b600554600160a01b900460ff1661057a5760405162461bcd60e51b815260206004820152601760248201527f506c6179546f6b656e3a206e6f74206d696e7461626c65000000000000000000604482015260640161046a565b6007546105908261058a60025490565b90610cb2565b11156105fd5760405162461bcd60e51b815260206004820152603660248201527f506c6179546f6b656e3a20746f74616c537570706c79206d757374206265206c604482015275657373207468616e206d6178696d756d537570706c7960501b606482015260840161046a565b6106078282610cc5565b5050565b336000908152602081905260409020548111156106745760405162461bcd60e51b815260206004820152602160248201527f506c6179546f6b656e3a2062616c616e6365206973206c6f7720746f206275726044820152603760f91b606482015260840161046a565b61067e3382610da4565b50565b6005546001600160a01b031633146106ab5760405162461bcd60e51b815260040161046a90611131565b600560149054906101000a900460ff16151581151514156107225760405162461bcd60e51b815260206004820152602b60248201527f506c6179546f6b656e3a206d696e7461626c65207374617465206d757374206260448201526a1948191a5999995c995b9d60aa1b606482015260840161046a565b60058054911515600160a01b0260ff60a01b19909216919091179055565b6005546001600160a01b0316331461076a5760405162461bcd60e51b815260040161046a90611131565b6107746000610eea565b565b606060048054610343906110c8565b6107b882336104c28460405180606001604052806028815260200161117e602891396107b188336102e3565b9190610f3c565b6106078282610da4565b3360009081526001602090815260408083206001600160a01b0386168452909152812054828110156108445760405162461bcd60e51b815260206004820152602560248201527f45524332303a2064656372656173656420616c6c6f77616e63652062656c6f77604482015264207a65726f60d81b606482015260840161046a565b61085133858584036109be565b5060019392505050565b60006103d3338484610ae3565b6005546001600160a01b031633146108925760405162461bcd60e51b815260040161046a90611131565b6001600160a01b0381166108f75760405162461bcd60e51b815260206004820152602660248201527f4f776e61626c653a206e6577206f776e657220697320746865207a65726f206160448201526564647265737360d01b606482015260840161046a565b61067e81610eea565b6005546001600160a01b0316331461092a5760405162461bcd60e51b815260040161046a90611131565b6006546001600160a01b038281169116141561099c5760405162461bcd60e51b815260206004820152602b60248201527f506c6179546f6b656e3a206d696e7465722061646472657373206d757374206260448201526a1948191a5999995c995b9d60aa1b606482015260840161046a565b600680546001600160a01b0319166001600160a01b0392909216919091179055565b6001600160a01b038316610a205760405162461bcd60e51b8152602060048201526024808201527f45524332303a20617070726f76652066726f6d20746865207a65726f206164646044820152637265737360e01b606482015260840161046a565b6001600160a01b038216610a815760405162461bcd60e51b815260206004820152602260248201527f45524332303a20617070726f766520746f20746865207a65726f206164647265604482015261737360f01b606482015260840161046a565b6001600160a01b0383811660008181526001602090815260408083209487168084529482529182902085905590518481527f8c5be1e5ebec7d5bd14f71427d1e84f3dd0314c0f7b2291e5b200ac8c7c3b92591015b60405180910390a3505050565b6001600160a01b038316610b475760405162461bcd60e51b815260206004820152602560248201527f45524332303a207472616e736665722066726f6d20746865207a65726f206164604482015264647265737360d81b606482015260840161046a565b6001600160a01b038216610ba95760405162461bcd60e51b815260206004820152602360248201527f45524332303a207472616e7366657220746f20746865207a65726f206164647260448201526265737360e81b606482015260840161046a565b6001600160a01b03831660009081526020819052604090205481811015610c215760405162461bcd60e51b815260206004820152602660248201527f45524332303a207472616e7366657220616d6f756e7420657863656564732062604482015265616c616e636560d01b606482015260840161046a565b6001600160a01b03808516600090815260208190526040808220858503905591851681529081208054849290610c58908490611119565b92505081905550826001600160a01b0316846001600160a01b03167fddf252ad1be2c89b69c2b068fc378daa952ba7f163c4a11628f55a4df523b3ef84604051610ca491815260200190565b60405180910390a350505050565b6000610cbe8284611119565b9392505050565b6001600160a01b038216610d1b5760405162461bcd60e51b815260206004820152601f60248201527f45524332303a206d696e7420746f20746865207a65726f206164647265737300604482015260640161046a565b8060026000828254610d2d9190611119565b90915550506001600160a01b03821660009081526020819052604081208054839290610d5a908490611119565b90915550506040518181526001600160a01b038316906000907fddf252ad1be2c89b69c2b068fc378daa952ba7f163c4a11628f55a4df523b3ef9060200160405180910390a35050565b6001600160a01b038216610e045760405162461bcd60e51b815260206004820152602160248201527f45524332303a206275726e2066726f6d20746865207a65726f206164647265736044820152607360f81b606482015260840161046a565b6001600160a01b03821660009081526020819052604090205481811015610e785760405162461bcd60e51b815260206004820152602260248201527f45524332303a206275726e20616d6f756e7420657863656564732062616c616e604482015261636560f01b606482015260840161046a565b6001600160a01b0383166000908152602081905260408120838303905560028054849290610ea7908490611166565b90915550506040518281526000906001600160a01b038516907fddf252ad1be2c89b69c2b068fc378daa952ba7f163c4a11628f55a4df523b3ef90602001610ad6565b600580546001600160a01b038381166001600160a01b0319831681179093556040519116919082907f8be0079c531659141344cd1fd0a4f28419497f9722a3daafe3b4186f6b6457e090600090a35050565b60008184841115610f605760405162461bcd60e51b815260040161046a9190610f68565b505050900390565b600060208083528351808285015260005b81811015610f9557858101830151858201604001528201610f79565b81811115610fa7576000604083870101525b50601f01601f1916929092016040019392505050565b80356001600160a01b0381168114610fd457600080fd5b919050565b60008060408385031215610fec57600080fd5b610ff583610fbd565b946020939093013593505050565b60008060006060848603121561101857600080fd5b61102184610fbd565b925061102f60208501610fbd565b9150604084013590509250925092565b60006020828403121561105157600080fd5b5035919050565b60006020828403121561106a57600080fd5b81358015158114610cbe57600080fd5b60006020828403121561108c57600080fd5b610cbe82610fbd565b600080604083850312156110a857600080fd5b6110b183610fbd565b91506110bf60208401610fbd565b90509250929050565b600181811c908216806110dc57607f821691505b602082108114156110fd57634e487b7160e01b600052602260045260246000fd5b50919050565b634e487b7160e01b600052601160045260246000fd5b6000821982111561112c5761112c611103565b500190565b6020808252818101527f4f776e61626c653a2063616c6c6572206973206e6f7420746865206f776e6572604082015260600190565b60008282101561117857611178611103565b50039056fe506c6179546f6b656e3a206275726e20616d6f756e74206578636565647320616c6c6f77616e6365a264697066735822122046039ea28d7b3d1a9712242c1b4ccff828cbae90ab9f1d1d4368b845ecc507c364736f6c634300080b0033",
    "linkReferences": {},
    "deployedLinkReferences": {}
}