{
    "contractName": "Purchase",
    "abi": [
        {
            "inputs": [
                {
                    "internalType": "address",
                    "name": "_nft",
                    "type": "address"
                },
                {
                    "internalType": "address",
                    "name": "_x22",
                    "type": "address"
                },
                {
                    "internalType": "address",
                    "name": "_pair",
                    "type": "address"
                }
            ],
            "stateMutability": "nonpayable",
            "type": "constructor"
        },
        {
            "anonymous": false,
            "inputs": [
                {
                    "indexed": false,
                    "internalType": "address",
                    "name": "_buyer",
                    "type": "address"
                },
                {
                    "indexed": false,
                    "internalType": "uint256",
                    "name": "_amount",
                    "type": "uint256"
                },
                {
                    "indexed": false,
                    "internalType": "uint256",
                    "name": "_numberOfToken",
                    "type": "uint256"
                }
            ],
            "name": "BuyNFTforBNB",
            "type": "event"
        },
        {
            "anonymous": false,
            "inputs": [
                {
                    "indexed": false,
                    "internalType": "address",
                    "name": "_buyer",
                    "type": "address"
                },
                {
                    "indexed": false,
                    "internalType": "uint256",
                    "name": "_amount",
                    "type": "uint256"
                },
                {
                    "indexed": false,
                    "internalType": "uint256",
                    "name": "_numberOfToken",
                    "type": "uint256"
                }
            ],
            "name": "BuyNFTforX22",
            "type": "event"
        },
        {
            "anonymous": false,
            "inputs": [
                {
                    "indexed": true,
                    "internalType": "address",
                    "name": "previousOwner",
                    "type": "address"
                },
                {
                    "indexed": true,
                    "internalType": "address",
                    "name": "newOwner",
                    "type": "address"
                }
            ],
            "name": "OwnershipTransferred",
            "type": "event"
        },
        {
            "anonymous": false,
            "inputs": [
                {
                    "indexed": false,
                    "internalType": "address",
                    "name": "account",
                    "type": "address"
                }
            ],
            "name": "Paused",
            "type": "event"
        },
        {
            "anonymous": false,
            "inputs": [
                {
                    "indexed": false,
                    "internalType": "uint256",
                    "name": "_discount",
                    "type": "uint256"
                }
            ],
            "name": "SetDiscount",
            "type": "event"
        },
        {
            "anonymous": false,
            "inputs": [
                {
                    "indexed": false,
                    "internalType": "uint256",
                    "name": "_priceInBNB",
                    "type": "uint256"
                }
            ],
            "name": "SetPrices",
            "type": "event"
        },
        {
            "anonymous": false,
            "inputs": [
                {
                    "indexed": false,
                    "internalType": "uint256",
                    "name": "_priceInX22",
                    "type": "uint256"
                }
            ],
            "name": "SetPricesX22",
            "type": "event"
        },
        {
            "anonymous": false,
            "inputs": [
                {
                    "indexed": false,
                    "internalType": "uint256",
                    "name": "_normalSale",
                    "type": "uint256"
                }
            ],
            "name": "SetTokensLimit",
            "type": "event"
        },
        {
            "anonymous": false,
            "inputs": [
                {
                    "indexed": false,
                    "internalType": "address",
                    "name": "account",
                    "type": "address"
                }
            ],
            "name": "Unpaused",
            "type": "event"
        },
        {
            "anonymous": false,
            "inputs": [
                {
                    "indexed": false,
                    "internalType": "bool",
                    "name": "_isDiscount",
                    "type": "bool"
                }
            ],
            "name": "UpdateIsDiscount",
            "type": "event"
        },
        {
            "anonymous": false,
            "inputs": [
                {
                    "indexed": false,
                    "internalType": "bool",
                    "name": "_isWhitelist",
                    "type": "bool"
                }
            ],
            "name": "UpdateWhitelist",
            "type": "event"
        },
        {
            "inputs": [],
            "name": "DENOMINATOR",
            "outputs": [
                {
                    "internalType": "uint256",
                    "name": "",
                    "type": "uint256"
                }
            ],
            "stateMutability": "view",
            "type": "function"
        },
        {
            "inputs": [],
            "name": "amountToPay",
            "outputs": [
                {
                    "internalType": "uint256",
                    "name": "",
                    "type": "uint256"
                }
            ],
            "stateMutability": "view",
            "type": "function"
        },
        {
            "inputs": [
                {
                    "internalType": "address[]",
                    "name": "_addresses",
                    "type": "address[]"
                }
            ],
            "name": "batchNFTCreate",
            "outputs": [],
            "stateMutability": "nonpayable",
            "type": "function"
        },
        {
            "inputs": [
                {
                    "internalType": "uint256",
                    "name": "_numberOfToken",
                    "type": "uint256"
                }
            ],
            "name": "buyWithBNB",
            "outputs": [],
            "stateMutability": "payable",
            "type": "function"
        },
        {
            "inputs": [
                {
                    "internalType": "uint256",
                    "name": "amount",
                    "type": "uint256"
                },
                {
                    "internalType": "uint256",
                    "name": "_numberOfToken",
                    "type": "uint256"
                }
            ],
            "name": "buyWithX22",
            "outputs": [],
            "stateMutability": "nonpayable",
            "type": "function"
        },
        {
            "inputs": [],
            "name": "discount",
            "outputs": [
                {
                    "internalType": "uint256",
                    "name": "",
                    "type": "uint256"
                }
            ],
            "stateMutability": "view",
            "type": "function"
        },
        {
            "inputs": [
                {
                    "internalType": "uint256",
                    "name": "_amount",
                    "type": "uint256"
                }
            ],
            "name": "getPriceInx22",
            "outputs": [
                {
                    "internalType": "uint256",
                    "name": "",
                    "type": "uint256"
                }
            ],
            "stateMutability": "view",
            "type": "function"
        },
        {
            "inputs": [],
            "name": "isDiscount",
            "outputs": [
                {
                    "internalType": "bool",
                    "name": "",
                    "type": "bool"
                }
            ],
            "stateMutability": "view",
            "type": "function"
        },
        {
            "inputs": [],
            "name": "maxTokenForOneSaleTransaction",
            "outputs": [
                {
                    "internalType": "uint256",
                    "name": "",
                    "type": "uint256"
                }
            ],
            "stateMutability": "view",
            "type": "function"
        },
        {
            "inputs": [],
            "name": "nft",
            "outputs": [
                {
                    "internalType": "contract x22IERC721",
                    "name": "",
                    "type": "address"
                }
            ],
            "stateMutability": "view",
            "type": "function"
        },
        {
            "inputs": [],
            "name": "owner",
            "outputs": [
                {
                    "internalType": "address",
                    "name": "",
                    "type": "address"
                }
            ],
            "stateMutability": "view",
            "type": "function"
        },
        {
            "inputs": [],
            "name": "pause",
            "outputs": [],
            "stateMutability": "nonpayable",
            "type": "function"
        },
        {
            "inputs": [],
            "name": "paused",
            "outputs": [
                {
                    "internalType": "bool",
                    "name": "",
                    "type": "bool"
                }
            ],
            "stateMutability": "view",
            "type": "function"
        },
        {
            "inputs": [],
            "name": "priceInBNB",
            "outputs": [
                {
                    "internalType": "uint256",
                    "name": "",
                    "type": "uint256"
                }
            ],
            "stateMutability": "view",
            "type": "function"
        },
        {
            "inputs": [],
            "name": "priceInX22",
            "outputs": [
                {
                    "internalType": "uint256",
                    "name": "",
                    "type": "uint256"
                }
            ],
            "stateMutability": "view",
            "type": "function"
        },
        {
            "inputs": [],
            "name": "renounceOwnership",
            "outputs": [],
            "stateMutability": "nonpayable",
            "type": "function"
        },
        {
            "inputs": [
                {
                    "internalType": "uint256",
                    "name": "_discount",
                    "type": "uint256"
                }
            ],
            "name": "setDiscount",
            "outputs": [],
            "stateMutability": "nonpayable",
            "type": "function"
        },
        {
            "inputs": [
                {
                    "internalType": "uint256",
                    "name": "_priceInBNB",
                    "type": "uint256"
                }
            ],
            "name": "setPrices",
            "outputs": [],
            "stateMutability": "nonpayable",
            "type": "function"
        },
        {
            "inputs": [
                {
                    "internalType": "uint256",
                    "name": "_priceInX22",
                    "type": "uint256"
                }
            ],
            "name": "setPricesX22",
            "outputs": [],
            "stateMutability": "nonpayable",
            "type": "function"
        },
        {
            "inputs": [
                {
                    "internalType": "uint256",
                    "name": "_normalSale",
                    "type": "uint256"
                }
            ],
            "name": "setTokensLimit",
            "outputs": [],
            "stateMutability": "nonpayable",
            "type": "function"
        },
        {
            "inputs": [
                {
                    "internalType": "address payable",
                    "name": "_treasurerAddress",
                    "type": "address"
                }
            ],
            "name": "setTreasurerAddress",
            "outputs": [],
            "stateMutability": "nonpayable",
            "type": "function"
        },
        {
            "inputs": [
                {
                    "internalType": "address",
                    "name": "newOwner",
                    "type": "address"
                }
            ],
            "name": "transferOwnership",
            "outputs": [],
            "stateMutability": "nonpayable",
            "type": "function"
        },
        {
            "inputs": [],
            "name": "treasurerAddress",
            "outputs": [
                {
                    "internalType": "address payable",
                    "name": "",
                    "type": "address"
                }
            ],
            "stateMutability": "view",
            "type": "function"
        },
        {
            "inputs": [],
            "name": "unpause",
            "outputs": [],
            "stateMutability": "nonpayable",
            "type": "function"
        },
        {
            "inputs": [
                {
                    "internalType": "bool",
                    "name": "_isDiscount",
                    "type": "bool"
                }
            ],
            "name": "updateIsDiscount",
            "outputs": [],
            "stateMutability": "nonpayable",
            "type": "function"
        },
        {
            "inputs": [],
            "name": "x22",
            "outputs": [
                {
                    "internalType": "contract IERC20",
                    "name": "",
                    "type": "address"
                }
            ],
            "stateMutability": "view",
            "type": "function"
        },
        {
            "inputs": [],
            "name": "x22_bnb_Pair",
            "outputs": [
                {
                    "internalType": "contract SwapPair",
                    "name": "",
                    "type": "address"
                }
            ],
            "stateMutability": "view",
            "type": "function"
        }
    ],
    "bytecode": "60806040523480156200001157600080fd5b50604051620019823803806200198283398101604081905262000034916200020a565b6200003f33620000eb565b6000805460ff60a01b19169055600180556001600160a01b0383166200006457600080fd5b6001600160a01b0382166200007857600080fd5b600380546001600160a01b038086166001600160a01b03199283161790925560048054858416908316179055600280549284169290911691909117905566d529ae9e86000060085568056bc75e2d631000006009556113886007556014600655620000e26200013b565b50505062000254565b600080546001600160a01b038381166001600160a01b0319831681178455604051919092169283917f8be0079c531659141344cd1fd0a4f28419497f9722a3daafe3b4186f6b6457e09190a35050565b6200014f600054600160a01b900460ff1690565b15620001945760405162461bcd60e51b815260206004820152601060248201526f14185d5cd8589b194e881c185d5cd95960821b604482015260640160405180910390fd5b6000805460ff60a01b1916600160a01b1790557f62e78cea01bee320cd4e420270b5ea74000d11b0c9f74754ebdbfc544b05a258620001d03390565b6040516001600160a01b03909116815260200160405180910390a1565b80516001600160a01b03811681146200020557600080fd5b919050565b6000806000606084860312156200022057600080fd5b6200022b84620001ed565b92506200023b60208501620001ed565b91506200024b60408501620001ed565b90509250925092565b61171e80620002646000396000f3fe60806040526004361061019c5760003560e01c8063715018a6116100ec578063b1f5b6da1161008a578063d7a75ef611610064578063d7a75ef614610454578063dabd27191461046a578063f2fde38b1461048a578063fc3266df146104aa57600080fd5b8063b1f5b6da14610401578063c3333dfb14610421578063d4ca9ff71461043457600080fd5b80638da5cb5b116100c65780638da5cb5b1461038d578063918f8674146103ab578063a3201daa146103c1578063a351f75a146103e157600080fd5b8063715018a61461034e5780637ba13680146103635780638456cb591461037857600080fd5b806347ccca02116101595780636b34a45a116101335780636b34a45a146102d85780636b6f4a9d146102f85780636bc3d2b81461030e5780636e0967ed1461032e57600080fd5b806347ccca021461026f5780634e1402741461028f5780635c975abb146102b957600080fd5b806310d3ae71146101a157806321ead1ff146101c35780632f66125a146102005780633a536a4b146102205780633f4ba83a146102445780633ff6358214610259575b600080fd5b3480156101ad57600080fd5b506101c16101bc366004611267565b6104ca565b005b3480156101cf57600080fd5b506002546101e3906001600160a01b031681565b6040516001600160a01b0390911681526020015b60405180910390f35b34801561020c57600080fd5b506101c161021b366004611297565b610754565b34801561022c57600080fd5b5061023660095481565b6040519081526020016101f7565b34801561025057600080fd5b506101c16107cc565b34801561026557600080fd5b5061023660085481565b34801561027b57600080fd5b506003546101e3906001600160a01b031681565b34801561029b57600080fd5b50600a546102a99060ff1681565b60405190151581526020016101f7565b3480156102c557600080fd5b50600054600160a01b900460ff166102a9565b3480156102e457600080fd5b506005546101e3906001600160a01b031681565b34801561030457600080fd5b5061023660075481565b34801561031a57600080fd5b506004546101e3906001600160a01b031681565b34801561033a57600080fd5b506101c16103493660046112ef565b610800565b34801561035a57600080fd5b506101c1610935565b34801561036f57600080fd5b50610236610969565b34801561038457600080fd5b506101c16109a6565b34801561039957600080fd5b506000546001600160a01b03166101e3565b3480156103b757600080fd5b5061023661271081565b3480156103cd57600080fd5b506101c16103dc3660046113b4565b6109d8565b3480156103ed57600080fd5b506101c16103fc3660046113cd565b610a57565b34801561040d57600080fd5b506101c161041c3660046113b4565b610b11565b6101c161042f3660046113b4565b610b70565b34801561044057600080fd5b506101c161044f3660046113b4565b610dd6565b34801561046057600080fd5b5061023660065481565b34801561047657600080fd5b506101c16104853660046113b4565b610e55565b34801561049657600080fd5b506101c16104a53660046113cd565b610f12565b3480156104b657600080fd5b506102366104c53660046113b4565b610fad565b600260015414156105225760405162461bcd60e51b815260206004820152601f60248201527f5265656e7472616e637947756172643a207265656e7472616e742063616c6c0060448201526064015b60405180910390fd5b6002600155600654819081111561054b5760405162461bcd60e51b8152600401610519906113ea565b600054600160a01b900460ff16156105755760405162461bcd60e51b81526004016105199061143c565b600082116105955760405162461bcd60e51b815260040161051990611466565b600a5460009060ff16156105f3576105b5836105af610969565b90611073565b90506105cf6127106105c98361251c611073565b90611086565b8410156105ee5760405162461bcd60e51b8152600401610519906114b8565b610622565b6009546106009084611073565b9050808410156106225760405162461bcd60e51b8152600401610519906114b8565b600480546005546040516323b872dd60e01b815233938101939093526001600160a01b0390811660248401526044830184905216906323b872dd906064016020604051808303816000875af115801561067f573d6000803e3d6000fd5b505050506040513d601f19601f820116820180604052508101906106a3919061150c565b506003546040516343508b0560e01b8152336004820152602481018590526001600160a01b03909116906343508b0590604401600060405180830381600087803b1580156106f057600080fd5b505af1158015610704573d6000803e3d6000fd5b505060408051338152602081018590529081018690527fc0a7001798ac9025c43cea953af9335c459462a9dbeae32048e424b39b3ee9619250606001905060405180910390a15050600180555050565b6000546001600160a01b0316331461077e5760405162461bcd60e51b815260040161051990611529565b600a805460ff191682151590811790915560405160ff909116151581527f7370732a4f4dae84130d1d99c091574ac951981ba4a59cae1c803dc92bb1811a906020015b60405180910390a150565b6000546001600160a01b031633146107f65760405162461bcd60e51b815260040161051990611529565b6107fe611092565b565b6000546001600160a01b0316331461082a5760405162461bcd60e51b815260040161051990611529565b80516108845760405162461bcd60e51b8152602060048201526024808201527f50757263686173653a207573652056616c69642061646472657373657320617260448201526303930bc960e51b6064820152608401610519565b60005b81518110156109315760035482516001600160a01b0390911690636a627842908490849081106108b9576108b961155e565b60200260200101516040518263ffffffff1660e01b81526004016108ec91906001600160a01b0391909116815260200190565b600060405180830381600087803b15801561090657600080fd5b505af115801561091a573d6000803e3d6000fd5b5050505080806109299061158a565b915050610887565b5050565b6000546001600160a01b0316331461095f5760405162461bcd60e51b815260040161051990611529565b6107fe600061112f565b6000806109956127106105c961098c60075461271061117f90919063ffffffff16565b60085490611073565b90506109a081610fad565b91505090565b6000546001600160a01b031633146109d05760405162461bcd60e51b815260040161051990611529565b6107fe61118b565b6000546001600160a01b03163314610a025760405162461bcd60e51b815260040161051990611529565b60008111610a225760405162461bcd60e51b8152600401610519906115a5565b60088190556040518181527facf812fbea101046c23dc98f3bf6aac759ebfe061237f1c28bcd8a5e99688386906020016107c1565b6000546001600160a01b03163314610a815760405162461bcd60e51b815260040161051990611529565b6001600160a01b038116610aef5760405162461bcd60e51b815260206004820152602f60248201527f50757263686173653a205f74726561737572657241646472657373206e6f742060448201526e6265207a65726f206164647265737360881b6064820152608401610519565b600580546001600160a01b0319166001600160a01b0392909216919091179055565b6000546001600160a01b03163314610b3b5760405162461bcd60e51b815260040161051990611529565b60068190556040518181527fcf03ddfc12f33c0cd59f3cc72d0289c56833d2470d5ac63e092010c02660e63f906020016107c1565b60026001541415610bc35760405162461bcd60e51b815260206004820152601f60248201527f5265656e7472616e637947756172643a207265656e7472616e742063616c6c006044820152606401610519565b60026001556006548190811115610bec5760405162461bcd60e51b8152600401610519906113ea565b600054600160a01b900460ff1615610c165760405162461bcd60e51b81526004016105199061143c565b60008211610c365760405162461bcd60e51b815260040161051990611466565b600854610c439083611073565b341015610caf5760405162461bcd60e51b815260206004820152603460248201527f50757263686173653a20616d6f756e74206f6620424e42206d75737420626520604482015273657175616c20746f20746f6b656e20707269636560601b6064820152608401610519565b6000610cd0610cc98460085461107390919063ffffffff16565b349061117f565b600554600854919250610cf8916001600160a01b0390911690610cf39086611073565b6111f0565b15610d62576003546040516343508b0560e01b8152336004820152602481018590526001600160a01b03909116906343508b0590604401600060405180830381600087803b158015610d4957600080fd5b505af1158015610d5d573d6000803e3d6000fd5b505050505b610d6c33826111f0565b507f55182c5167778ea48cb88a7766a3a52ed229f02c8188a7f57bb311bac1def85533610da48560085461107390919063ffffffff16565b604080516001600160a01b0390931683526020830191909152810185905260600160405180910390a150506001805550565b6000546001600160a01b03163314610e005760405162461bcd60e51b815260040161051990611529565b60008111610e205760405162461bcd60e51b8152600401610519906115a5565b60098190556040518181527f9ee2196faf7d0829d67bba5bfe531240ddf20c2d4ad4f7cc7d4e2013675f0579906020016107c1565b6000546001600160a01b03163314610e7f5760405162461bcd60e51b815260040161051990611529565b600081118015610e9157506127108111155b610edd5760405162461bcd60e51b815260206004820181905260248201527f50757263686173653a20446973636f756e7420696e206e6f742076616c6964206044820152606401610519565b60078190556040518181527ff247e4dd947ab13ba6c46412e403447a26e67109ba13945a20e3170e9acef883906020016107c1565b6000546001600160a01b03163314610f3c5760405162461bcd60e51b815260040161051990611529565b6001600160a01b038116610fa15760405162461bcd60e51b815260206004820152602660248201527f4f776e61626c653a206e6577206f776e657220697320746865207a65726f206160448201526564647265737360d01b6064820152608401610519565b610faa8161112f565b50565b6000806000600260009054906101000a90046001600160a01b03166001600160a01b0316630902f1ac6040518163ffffffff1660e01b8152600401606060405180830381865afa158015611005573d6000803e3d6000fd5b505050506040513d601f19601f820116820180604052508101906110299190611605565b506001600160701b0391821693501690506000611052826105c985670de0b6b3a7640000611073565b905061106a670de0b6b3a76400006105c98388611073565b95945050505050565b600061107f8284611655565b9392505050565b600061107f8284611674565b600054600160a01b900460ff166110e25760405162461bcd60e51b815260206004820152601460248201527314185d5cd8589b194e881b9bdd081c185d5cd95960621b6044820152606401610519565b6000805460ff60a01b191690557f5db9ee0a495bf2e6ff9c91a7834c1ba4fdd244a5e8aa4e537bd38aeae4b073aa335b6040516001600160a01b03909116815260200160405180910390a1565b600080546001600160a01b038381166001600160a01b0319831681178455604051919092169283917f8be0079c531659141344cd1fd0a4f28419497f9722a3daafe3b4186f6b6457e09190a35050565b600061107f8284611696565b600054600160a01b900460ff16156111b55760405162461bcd60e51b81526004016105199061143c565b6000805460ff60a01b1916600160a01b1790557f62e78cea01bee320cd4e420270b5ea74000d11b0c9f74754ebdbfc544b05a2586111123390565b60408051600080825260208201928390529182916001600160a01b03861691859161121a916116ad565b60006040518083038185875af1925050503d8060008114611257576040519150601f19603f3d011682016040523d82523d6000602084013e61125c565b606091505b509095945050505050565b6000806040838503121561127a57600080fd5b50508035926020909101359150565b8015158114610faa57600080fd5b6000602082840312156112a957600080fd5b813561107f81611289565b634e487b7160e01b600052604160045260246000fd5b6001600160a01b0381168114610faa57600080fd5b80356112ea816112ca565b919050565b6000602080838503121561130257600080fd5b823567ffffffffffffffff8082111561131a57600080fd5b818501915085601f83011261132e57600080fd5b813581811115611340576113406112b4565b8060051b604051601f19603f83011681018181108582111715611365576113656112b4565b60405291825284820192508381018501918883111561138357600080fd5b938501935b828510156113a857611399856112df565b84529385019392850192611388565b98975050505050505050565b6000602082840312156113c657600080fd5b5035919050565b6000602082840312156113df57600080fd5b813561107f816112ca565b60208082526032908201527f50757263686173653a20656e7465722076616c696420746f6b656e20616d6f756040820152716e7420666f72206e6f726d616c2073616c6560701b606082015260800190565b60208082526010908201526f14185d5cd8589b194e881c185d5cd95960821b604082015260600190565b60208082526032908201527f50757263686173653a205f6e756d6265724f66546f6b656e206d7573742062656040820152712067726561746572207468616e207a65726f60701b606082015260800190565b60208082526034908201527f50757263686173653a20616d6f756e74206f6620783232206d75737420626520604082015273657175616c20746f20746f6b656e20707269636560601b606082015260800190565b60006020828403121561151e57600080fd5b815161107f81611289565b6020808252818101527f4f776e61626c653a2063616c6c6572206973206e6f7420746865206f776e6572604082015260600190565b634e487b7160e01b600052603260045260246000fd5b634e487b7160e01b600052601160045260246000fd5b600060001982141561159e5761159e611574565b5060010190565b60208082526029908201527f50757263686173653a205072696365206d7573742062652067726561746572206040820152687468616e207a65726f60b81b606082015260800190565b80516001600160701b03811681146112ea57600080fd5b60008060006060848603121561161a57600080fd5b611623846115ee565b9250611631602085016115ee565b9150604084015163ffffffff8116811461164a57600080fd5b809150509250925092565b600081600019048311821515161561166f5761166f611574565b500290565b60008261169157634e487b7160e01b600052601260045260246000fd5b500490565b6000828210156116a8576116a8611574565b500390565b6000825160005b818110156116ce57602081860181015185830152016116b4565b818111156116dd576000828501525b50919091019291505056fea26469706673582212200230a0f81fff1a065e3eff9a40fe6a1c7a8fd290dd49543f3d1919fccc53fccb64736f6c634300080b0033",
    "sourcePath": "d:/Sagar/World-Cow/Cow/contracts/CowSale.sol",
    "compiler": {
        "name": "solc",
        "version": "0.8.11+commit.d7f03943"
    },
    "functionHashes": {
        "DENOMINATOR()": "918f8674",
        "amountToPay()": "7ba13680",
        "batchNFTCreate(address[])": "6e0967ed",
        "buyWithBNB(uint256)": "c3333dfb",
        "buyWithX22(uint256,uint256)": "10d3ae71",
        "discount()": "6b6f4a9d",
        "getPriceInx22(uint256)": "fc3266df",
        "isDiscount()": "4e140274",
        "maxTokenForOneSaleTransaction()": "d7a75ef6",
        "nft()": "47ccca02",
        "owner()": "8da5cb5b",
        "pause()": "8456cb59",
        "paused()": "5c975abb",
        "priceInBNB()": "3ff63582",
        "priceInX22()": "3a536a4b",
        "renounceOwnership()": "715018a6",
        "setDiscount(uint256)": "dabd2719",
        "setPrices(uint256)": "a3201daa",
        "setPricesX22(uint256)": "d4ca9ff7",
        "setTokensLimit(uint256)": "b1f5b6da",
        "setTreasurerAddress(address)": "a351f75a",
        "transferOwnership(address)": "f2fde38b",
        "treasurerAddress()": "6b34a45a",
        "unpause()": "3f4ba83a",
        "updateIsDiscount(bool)": "2f66125a",
        "x22()": "6bc3d2b8",
        "x22_bnb_Pair()": "21ead1ff"
    },
    "gasEstimates": {
        "creation": {
            "codeDepositCost": "1183600",
            "executionCost": "infinite",
            "totalCost": "infinite"
        },
        "external": {
            "DENOMINATOR()": "262",
            "amountToPay()": "infinite",
            "batchNFTCreate(address[])": "infinite",
            "buyWithBNB(uint256)": "infinite",
            "buyWithX22(uint256,uint256)": "infinite",
            "discount()": "2362",
            "getPriceInx22(uint256)": "infinite",
            "isDiscount()": "2378",
            "maxTokenForOneSaleTransaction()": "2339",
            "nft()": "2372",
            "owner()": "2365",
            "pause()": "29869",
            "paused()": "2411",
            "priceInBNB()": "2429",
            "priceInX22()": "2385",
            "renounceOwnership()": "28160",
            "setDiscount(uint256)": "25664",
            "setPrices(uint256)": "25653",
            "setPricesX22(uint256)": "25653",
            "setTokensLimit(uint256)": "25586",
            "setTreasurerAddress(address)": "26851",
            "transferOwnership(address)": "infinite",
            "treasurerAddress()": "2371",
            "unpause()": "29862",
            "updateIsDiscount(bool)": "27806",
            "x22()": "2415",
            "x22_bnb_Pair()": "2372"
        },
        "internal": {
            "_safeTransferBNB(address,uint256)": "infinite"
        }
    }
}